{
  "_format": "hh-sol-artifact-1",
  "contractName": "MintClawPayments",
  "sourceName": "contracts/src/MintClawPayments.sol",
  "abi": [
    {
      "inputs": [
        {
          "internalType": "address",
          "name": "_usdc",
          "type": "address"
        },
        {
          "internalType": "address",
          "name": "_feeRecipient",
          "type": "address"
        }
      ],
      "stateMutability": "nonpayable",
      "type": "constructor"
    },
    {
      "inputs": [],
      "name": "ReentrancyGuardReentrantCall",
      "type": "error"
    },
    {
      "inputs": [
        {
          "internalType": "address",
          "name": "token",
          "type": "address"
        }
      ],
      "name": "SafeERC20FailedOperation",
      "type": "error"
    },
    {
      "anonymous": false,
      "inputs": [
        {
          "indexed": true,
          "internalType": "bytes32",
          "name": "escrowId",
          "type": "bytes32"
        },
        {
          "indexed": true,
          "internalType": "address",
          "name": "payer",
          "type": "address"
        },
        {
          "indexed": true,
          "internalType": "address",
          "name": "provider",
          "type": "address"
        },
        {
          "indexed": false,
          "internalType": "uint256",
          "name": "amount",
          "type": "uint256"
        },
        {
          "indexed": false,
          "internalType": "string",
          "name": "jobId",
          "type": "string"
        },
        {
          "indexed": false,
          "internalType": "uint256",
          "name": "deadline",
          "type": "uint256"
        }
      ],
      "name": "EscrowCreated",
      "type": "event"
    },
    {
      "anonymous": false,
      "inputs": [
        {
          "indexed": true,
          "internalType": "bytes32",
          "name": "escrowId",
          "type": "bytes32"
        }
      ],
      "name": "EscrowDisputed",
      "type": "event"
    },
    {
      "anonymous": false,
      "inputs": [
        {
          "indexed": true,
          "internalType": "bytes32",
          "name": "escrowId",
          "type": "bytes32"
        },
        {
          "indexed": false,
          "internalType": "uint256",
          "name": "amount",
          "type": "uint256"
        }
      ],
      "name": "EscrowRefunded",
      "type": "event"
    },
    {
      "anonymous": false,
      "inputs": [
        {
          "indexed": true,
          "internalType": "bytes32",
          "name": "escrowId",
          "type": "bytes32"
        },
        {
          "indexed": false,
          "internalType": "uint256",
          "name": "amount",
          "type": "uint256"
        },
        {
          "indexed": false,
          "internalType": "uint256",
          "name": "fee",
          "type": "uint256"
        }
      ],
      "name": "EscrowReleased",
      "type": "event"
    },
    {
      "anonymous": false,
      "inputs": [
        {
          "indexed": true,
          "internalType": "address",
          "name": "from",
          "type": "address"
        },
        {
          "indexed": true,
          "internalType": "address",
          "name": "to",
          "type": "address"
        },
        {
          "indexed": false,
          "internalType": "uint256",
          "name": "amount",
          "type": "uint256"
        },
        {
          "indexed": false,
          "internalType": "uint256",
          "name": "fee",
          "type": "uint256"
        },
        {
          "indexed": false,
          "internalType": "string",
          "name": "memo",
          "type": "string"
        }
      ],
      "name": "InstantPayment",
      "type": "event"
    },
    {
      "anonymous": false,
      "inputs": [
        {
          "indexed": true,
          "internalType": "bytes32",
          "name": "streamId",
          "type": "bytes32"
        },
        {
          "indexed": true,
          "internalType": "address",
          "name": "payer",
          "type": "address"
        },
        {
          "indexed": true,
          "internalType": "address",
          "name": "recipient",
          "type": "address"
        },
        {
          "indexed": false,
          "internalType": "uint256",
          "name": "ratePerSecond",
          "type": "uint256"
        },
        {
          "indexed": false,
          "internalType": "uint256",
          "name": "maxDuration",
          "type": "uint256"
        }
      ],
      "name": "StreamStarted",
      "type": "event"
    },
    {
      "anonymous": false,
      "inputs": [
        {
          "indexed": true,
          "internalType": "bytes32",
          "name": "streamId",
          "type": "bytes32"
        },
        {
          "indexed": false,
          "internalType": "uint256",
          "name": "totalPaid",
          "type": "uint256"
        },
        {
          "indexed": false,
          "internalType": "uint256",
          "name": "refunded",
          "type": "uint256"
        }
      ],
      "name": "StreamStopped",
      "type": "event"
    },
    {
      "anonymous": false,
      "inputs": [
        {
          "indexed": true,
          "internalType": "bytes32",
          "name": "streamId",
          "type": "bytes32"
        },
        {
          "indexed": false,
          "internalType": "uint256",
          "name": "amount",
          "type": "uint256"
        }
      ],
      "name": "StreamWithdrawn",
      "type": "event"
    },
    {
      "inputs": [
        {
          "internalType": "bytes32",
          "name": "escrowId",
          "type": "bytes32"
        }
      ],
      "name": "cancelEscrow",
      "outputs": [],
      "stateMutability": "nonpayable",
      "type": "function"
    },
    {
      "inputs": [
        {
          "internalType": "bytes32",
          "name": "escrowId",
          "type": "bytes32"
        }
      ],
      "name": "claimEscrow",
      "outputs": [],
      "stateMutability": "nonpayable",
      "type": "function"
    },
    {
      "inputs": [
        {
          "internalType": "address",
          "name": "provider",
          "type": "address"
        },
        {
          "internalType": "uint256",
          "name": "amount",
          "type": "uint256"
        },
        {
          "internalType": "string",
          "name": "jobId",
          "type": "string"
        },
        {
          "internalType": "uint256",
          "name": "deadline",
          "type": "uint256"
        }
      ],
      "name": "createEscrow",
      "outputs": [
        {
          "internalType": "bytes32",
          "name": "escrowId",
          "type": "bytes32"
        }
      ],
      "stateMutability": "nonpayable",
      "type": "function"
    },
    {
      "inputs": [],
      "name": "escrowCount",
      "outputs": [
        {
          "internalType": "uint256",
          "name": "",
          "type": "uint256"
        }
      ],
      "stateMutability": "view",
      "type": "function"
    },
    {
      "inputs": [
        {
          "internalType": "bytes32",
          "name": "",
          "type": "bytes32"
        }
      ],
      "name": "escrows",
      "outputs": [
        {
          "internalType": "address",
          "name": "payer",
          "type": "address"
        },
        {
          "internalType": "address",
          "name": "provider",
          "type": "address"
        },
        {
          "internalType": "uint256",
          "name": "amount",
          "type": "uint256"
        },
        {
          "internalType": "uint256",
          "name": "deadline",
          "type": "uint256"
        },
        {
          "internalType": "string",
          "name": "jobId",
          "type": "string"
        },
        {
          "internalType": "enum MintClawPayments.EscrowState",
          "name": "state",
          "type": "uint8"
        },
        {
          "internalType": "uint256",
          "name": "createdAt",
          "type": "uint256"
        }
      ],
      "stateMutability": "view",
      "type": "function"
    },
    {
      "inputs": [],
      "name": "feeRecipient",
      "outputs": [
        {
          "internalType": "address",
          "name": "",
          "type": "address"
        }
      ],
      "stateMutability": "view",
      "type": "function"
    },
    {
      "inputs": [
        {
          "internalType": "bytes32",
          "name": "escrowId",
          "type": "bytes32"
        }
      ],
      "name": "getEscrow",
      "outputs": [
        {
          "internalType": "address",
          "name": "payer",
          "type": "address"
        },
        {
          "internalType": "address",
          "name": "provider",
          "type": "address"
        },
        {
          "internalType": "uint256",
          "name": "amount",
          "type": "uint256"
        },
        {
          "internalType": "uint256",
          "name": "deadline",
          "type": "uint256"
        },
        {
          "internalType": "string",
          "name": "jobId",
          "type": "string"
        },
        {
          "internalType": "enum MintClawPayments.EscrowState",
          "name": "state",
          "type": "uint8"
        }
      ],
      "stateMutability": "view",
      "type": "function"
    },
    {
      "inputs": [
        {
          "internalType": "bytes32",
          "name": "streamId",
          "type": "bytes32"
        }
      ],
      "name": "getStream",
      "outputs": [
        {
          "internalType": "address",
          "name": "payer",
          "type": "address"
        },
        {
          "internalType": "address",
          "name": "recipient",
          "type": "address"
        },
        {
          "internalType": "uint256",
          "name": "ratePerSecond",
          "type": "uint256"
        },
        {
          "internalType": "uint256",
          "name": "startTime",
          "type": "uint256"
        },
        {
          "internalType": "uint256",
          "name": "maxDuration",
          "type": "uint256"
        },
        {
          "internalType": "uint256",
          "name": "withdrawn",
          "type": "uint256"
        },
        {
          "internalType": "bool",
          "name": "active",
          "type": "bool"
        }
      ],
      "stateMutability": "view",
      "type": "function"
    },
    {
      "inputs": [
        {
          "internalType": "bytes32",
          "name": "streamId",
          "type": "bytes32"
        }
      ],
      "name": "getStreamBalance",
      "outputs": [
        {
          "internalType": "uint256",
          "name": "withdrawable",
          "type": "uint256"
        }
      ],
      "stateMutability": "view",
      "type": "function"
    },
    {
      "inputs": [
        {
          "internalType": "address",
          "name": "to",
          "type": "address"
        },
        {
          "internalType": "uint256",
          "name": "amount",
          "type": "uint256"
        },
        {
          "internalType": "string",
          "name": "memo",
          "type": "string"
        }
      ],
      "name": "pay",
      "outputs": [],
      "stateMutability": "nonpayable",
      "type": "function"
    },
    {
      "inputs": [],
      "name": "protocolFeeBps",
      "outputs": [
        {
          "internalType": "uint256",
          "name": "",
          "type": "uint256"
        }
      ],
      "stateMutability": "view",
      "type": "function"
    },
    {
      "inputs": [
        {
          "internalType": "bytes32",
          "name": "escrowId",
          "type": "bytes32"
        }
      ],
      "name": "refundEscrow",
      "outputs": [],
      "stateMutability": "nonpayable",
      "type": "function"
    },
    {
      "inputs": [
        {
          "internalType": "bytes32",
          "name": "escrowId",
          "type": "bytes32"
        }
      ],
      "name": "releaseEscrow",
      "outputs": [],
      "stateMutability": "nonpayable",
      "type": "function"
    },
    {
      "inputs": [
        {
          "internalType": "address",
          "name": "_feeRecipient",
          "type": "address"
        }
      ],
      "name": "setFeeRecipient",
      "outputs": [],
      "stateMutability": "nonpayable",
      "type": "function"
    },
    {
      "inputs": [
        {
          "internalType": "uint256",
          "name": "_feeBps",
          "type": "uint256"
        }
      ],
      "name": "setProtocolFee",
      "outputs": [],
      "stateMutability": "nonpayable",
      "type": "function"
    },
    {
      "inputs": [
        {
          "internalType": "address",
          "name": "recipient",
          "type": "address"
        },
        {
          "internalType": "uint256",
          "name": "ratePerSecond",
          "type": "uint256"
        },
        {
          "internalType": "uint256",
          "name": "maxDuration",
          "type": "uint256"
        }
      ],
      "name": "startStream",
      "outputs": [
        {
          "internalType": "bytes32",
          "name": "streamId",
          "type": "bytes32"
        }
      ],
      "stateMutability": "nonpayable",
      "type": "function"
    },
    {
      "inputs": [
        {
          "internalType": "bytes32",
          "name": "streamId",
          "type": "bytes32"
        }
      ],
      "name": "stopStream",
      "outputs": [],
      "stateMutability": "nonpayable",
      "type": "function"
    },
    {
      "inputs": [],
      "name": "streamCount",
      "outputs": [
        {
          "internalType": "uint256",
          "name": "",
          "type": "uint256"
        }
      ],
      "stateMutability": "view",
      "type": "function"
    },
    {
      "inputs": [
        {
          "internalType": "bytes32",
          "name": "",
          "type": "bytes32"
        }
      ],
      "name": "streams",
      "outputs": [
        {
          "internalType": "address",
          "name": "payer",
          "type": "address"
        },
        {
          "internalType": "address",
          "name": "recipient",
          "type": "address"
        },
        {
          "internalType": "uint256",
          "name": "ratePerSecond",
          "type": "uint256"
        },
        {
          "internalType": "uint256",
          "name": "startTime",
          "type": "uint256"
        },
        {
          "internalType": "uint256",
          "name": "maxDuration",
          "type": "uint256"
        },
        {
          "internalType": "uint256",
          "name": "totalDeposit",
          "type": "uint256"
        },
        {
          "internalType": "uint256",
          "name": "withdrawn",
          "type": "uint256"
        },
        {
          "internalType": "bool",
          "name": "active",
          "type": "bool"
        }
      ],
      "stateMutability": "view",
      "type": "function"
    },
    {
      "inputs": [],
      "name": "usdc",
      "outputs": [
        {
          "internalType": "contract IERC20",
          "name": "",
          "type": "address"
        }
      ],
      "stateMutability": "view",
      "type": "function"
    },
    {
      "inputs": [
        {
          "internalType": "bytes32",
          "name": "streamId",
          "type": "bytes32"
        }
      ],
      "name": "withdrawFromStream",
      "outputs": [],
      "stateMutability": "nonpayable",
      "type": "function"
    }
  ],
  "bytecode": "0x60a060405260fa6002553480156200001657600080fd5b506040516200241438038062002414833981016040819052620000399162000084565b600160008190556001600160a01b0392831660805280546001600160a01b03191691909216179055620000bc565b80516001600160a01b03811681146200007f57600080fd5b919050565b600080604083850312156200009857600080fd5b620000a38362000067565b9150620000b36020840162000067565b90509250929050565b6080516122da6200013a600039600081816102780152818161063a0152818161067a01528181610918015281816109580152818161099a01528181610ad301528181610c2001528181610c5501528181610c9301528181610f120152818161132c015281816116a5015281816116ee015261197f01526122da6000f3fe608060405234801561001057600080fd5b50600436106101375760003560e01c8063675ac67a116100b857806397325a001161007c57806397325a00146103f2578063b561147914610405578063bf89fc6114610418578063e74b981b1461042b578063ee5e3b811461043e578063f023b8111461045157600080fd5b8063675ac67a14610311578063787dce3d1461031a5780637f7bd2df1461032d5780638912b302146103d657806389d0e119146103e957600080fd5b80634294c447116100ff5780634294c447146102b257806346904840146102c557806347aed508146102d85780634a4bdb30146102eb57806366e3aad6146102fe57600080fd5b80630ded48311461013c5780631290abe8146101515780632d83549c1461023657806335659fb81461025c5780633e413bee14610273575b600080fd5b61014f61014a366004611ce6565b610476565b005b6101ef61015f366004611ce6565b60009081526004602081815260409283902083516101008101855281546001600160a01b03908116808352600184015490911693820184905260028301549582018690526003830154606083018190529483015460808301819052600584015460a0840152600684015460c0840181905260079094015460ff16151560e090930183905290969395949390929190565b604080516001600160a01b039889168152979096166020880152948601939093526060850191909152608084015260a0830152151560c082015260e0015b60405180910390f35b610249610244366004611ce6565b6106ee565b60405161022d9796959493929190611d7d565b61026560025481565b60405190815260200161022d565b61029a7f000000000000000000000000000000000000000000000000000000000000000081565b6040516001600160a01b03909116815260200161022d565b61014f6102c0366004611ce6565b6107c4565b60015461029a906001600160a01b031681565b61014f6102e6366004611ce6565b610a0d565b61014f6102f9366004611e3d565b610b4f565b61026561030c366004611e97565b610d1f565b61026560055481565b61014f610328366004611ce6565b6110b8565b61038e61033b366004611ce6565b6004602081905260009182526040909120805460018201546002830154600384015494840154600585015460068601546007909601546001600160a01b0395861697949095169592949192909160ff1688565b604080516001600160a01b03998a168152989097166020890152958701949094526060860192909252608085015260a084015260c0830152151560e08201526101000161022d565b6102656103e4366004611ef9565b611128565b61026560065481565b610265610400366004611ce6565b6114cf565b61014f610413366004611ce6565b611560565b61014f610426366004611ce6565b61175f565b61014f610439366004611f2c565b6117ff565b61014f61044c366004611ce6565b61184b565b61046461045f366004611ce6565b6119fc565b60405161022d96959493929190611f47565b61047e611b5a565b6000818152600460205260409020600781015460ff166104d95760405162461bcd60e51b815260206004820152601160248201527053747265616d206e6f742061637469766560781b60448201526064015b60405180910390fd5b60018101546001600160a01b031633146105255760405162461bcd60e51b815260206004820152600d60248201526c139bdd081c9958da5c1a595b9d609a1b60448201526064016104d0565b604080516101008101825282546001600160a01b03908116825260018401541660208201526002830154918101919091526003820154606082015260048201546080820152600582015460a0820152600682015460c0820152600782015460ff16151560e082015260009061059990611b84565b9050600081116105e15760405162461bcd60e51b81526020600482015260136024820152724e6f7468696e6720746f20776974686472617760681b60448201526064016104d0565b6000612710600254836105f49190611fb1565b6105fe9190611fce565b9050600061060c8284611ff0565b9050828460060160008282546106229190612003565b90915550506001840154610663906001600160a01b037f00000000000000000000000000000000000000000000000000000000000000008116911683611bd8565b81156106a3576001546106a3906001600160a01b037f00000000000000000000000000000000000000000000000000000000000000008116911684611bd8565b847fbad73205a466495b87bb0219708825488324561f58391f81793d5293a103566c826040516106d591815260200190565b60405180910390a2505050506106eb6001600055565b50565b6003602081905260009182526040909120805460018201546002830154938301546004840180546001600160a01b03948516969490931694919261073190612016565b80601f016020809104026020016040519081016040528092919081815260200182805461075d90612016565b80156107aa5780601f1061077f576101008083540402835291602001916107aa565b820191906000526020600020905b81548152906001019060200180831161078d57829003601f168201915b505050506005830154600690930154919260ff1691905087565b6107cc611b5a565b6000818152600460205260409020600781015460ff166108225760405162461bcd60e51b815260206004820152601160248201527053747265616d206e6f742061637469766560781b60448201526064016104d0565b80546001600160a01b0316331480610846575060018101546001600160a01b031633145b6108625760405162461bcd60e51b81526004016104d090612050565b60008160030154426108749190611ff0565b90508160040154811115610889575060048101545b600082600201548261089b9190611fb1565b905060008360060154826108af9190611ff0565b905060008285600501546108c39190611ff0565b60078601805460ff1916905590508115610984576000612710600254846108ea9190611fb1565b6108f49190611fce565b905060006109028285611ff0565b6001880154909150610941906001600160a01b037f00000000000000000000000000000000000000000000000000000000000000008116911683611bd8565b811561098157600154610981906001600160a01b037f00000000000000000000000000000000000000000000000000000000000000008116911684611bd8565b50505b80156109c35784546109c3906001600160a01b037f00000000000000000000000000000000000000000000000000000000000000008116911683611bd8565b604080518481526020810183905287917f209342b2e6ecac54b463c9c2105f9ec38d0a7049da8a981d50ac77d9ef55e64a910160405180910390a250505050506106eb6001600055565b610a15611b5a565b60008181526003602052604090206001600582015460ff166004811115610a3e57610a3e611d45565b14610a5b5760405162461bcd60e51b81526004016104d090612078565b60018101546001600160a01b03163314610ab75760405162461bcd60e51b815260206004820152601860248201527f4f6e6c792070726f76696465722063616e20726566756e64000000000000000060448201526064016104d0565b60058101805460ff1916600417905580546002820154610b06917f00000000000000000000000000000000000000000000000000000000000000006001600160a01b0390811692911690611bd8565b817f21cabc2fff910e5afd1e2bcb22ff2b165a41ab0afbaf364f07aaf2f7787fb9088260020154604051610b3c91815260200190565b60405180910390a2506106eb6001600055565b610b57611b5a565b6001600160a01b038416610ba15760405162461bcd60e51b8152602060048201526011602482015270125b9d985b1a59081c9958da5c1a595b9d607a1b60448201526064016104d0565b60008311610be65760405162461bcd60e51b81526020600482015260126024820152710416d6f756e74206d757374206265203e20360741b60448201526064016104d0565b600061271060025485610bf99190611fb1565b610c039190611fce565b90506000610c118286611ff0565b9050610c486001600160a01b037f000000000000000000000000000000000000000000000000000000000000000016333088611c3c565b610c7c6001600160a01b037f0000000000000000000000000000000000000000000000000000000000000000168783611bd8565b8115610cbc57600154610cbc906001600160a01b037f00000000000000000000000000000000000000000000000000000000000000008116911684611bd8565b856001600160a01b0316336001600160a01b03167f48355994b4d48e8cd8c091881192bf6266d1e55e09265c29de928681dcd068b083858888604051610d0594939291906120cc565b60405180910390a35050610d196001600055565b50505050565b6000610d29611b5a565b6001600160a01b038616610d725760405162461bcd60e51b815260206004820152601060248201526f24b73b30b634b210383937bb34b232b960811b60448201526064016104d0565b336001600160a01b03871603610dc25760405162461bcd60e51b815260206004820152601560248201527421b0b73737ba1032b9b1b937bb903a379039b2b63360591b60448201526064016104d0565b60008511610e075760405162461bcd60e51b81526020600482015260126024820152710416d6f756e74206d757374206265203e20360741b60448201526064016104d0565b428211610e565760405162461bcd60e51b815260206004820152601760248201527f446561646c696e65206d7573742062652066757475726500000000000000000060448201526064016104d0565b338685854260056000815480929190610e6e906120f6565b91905055604051602001610e879695949392919061210f565b60408051601f19818403018152919052805160209091012090506000808281526003602052604090206005015460ff166004811115610ec857610ec8611d45565b14610f055760405162461bcd60e51b815260206004820152600d60248201526c457363726f772065786973747360981b60448201526064016104d0565b610f3a6001600160a01b037f000000000000000000000000000000000000000000000000000000000000000016333088611c3c565b6040518060e00160405280336001600160a01b03168152602001876001600160a01b0316815260200186815260200183815260200185858080601f016020809104026020016040519081016040528093929190818152602001838380828437600092019190915250505090825250602001600181524260209182015260008381526003808352604091829020845181546001600160a01b03199081166001600160a01b03928316178355948601516001830180549096169116179093559083015160028301556060830151908201556080820151600482019061101d90826121b9565b5060a082015160058201805460ff1916600183600481111561104157611041611d45565b021790555060c08201518160060155905050856001600160a01b0316336001600160a01b0316827ff4595dc63c652ead256470ac6c3e6edc897269c1b34009f7a3ab41426bcc835d8888888860405161109d9493929190612279565b60405180910390a46110af6001600055565b95945050505050565b6001546001600160a01b031633146110e25760405162461bcd60e51b81526004016104d090612050565b6103e88111156111235760405162461bcd60e51b815260206004820152600c60248201526b08ccaca40e8dede40d0d2ced60a31b60448201526064016104d0565b600255565b6000611132611b5a565b6001600160a01b03841661117c5760405162461bcd60e51b8152602060048201526011602482015270125b9d985b1a59081c9958da5c1a595b9d607a1b60448201526064016104d0565b336001600160a01b038516036111cc5760405162461bcd60e51b815260206004820152601560248201527421b0b73737ba1039ba3932b0b6903a379039b2b63360591b60448201526064016104d0565b6000831161120f5760405162461bcd60e51b815260206004820152601060248201526f052617465206d757374206265203e20360841b60448201526064016104d0565b600082116112565760405162461bcd60e51b815260206004820152601460248201527304475726174696f6e206d757374206265203e20360641b60448201526064016104d0565b60006112628385611fb1565b90503385426006600081548092919061127a906120f6565b909155506040516bffffffffffffffffffffffff19606095861b811660208301529390941b90921660348401526048830152606882015260880160408051601f1981840301815291815281516020928301206000818152600490935291206007015490925060ff161561131f5760405162461bcd60e51b815260206004820152600d60248201526c53747265616d2065786973747360981b60448201526064016104d0565b6113546001600160a01b037f000000000000000000000000000000000000000000000000000000000000000016333084611c3c565b604051806101000160405280336001600160a01b03168152602001866001600160a01b0316815260200185815260200142815260200184815260200182815260200160008152602001600115158152506004600084815260200190815260200160002060008201518160000160006101000a8154816001600160a01b0302191690836001600160a01b0316021790555060208201518160010160006101000a8154816001600160a01b0302191690836001600160a01b0316021790555060408201518160020155606082015181600301556080820151816004015560a0820151816005015560c0820151816006015560e08201518160070160006101000a81548160ff021916908315150217905550905050846001600160a01b0316336001600160a01b0316837f4c8878a8e42715f4a5d308425ea82e52e2a9f35bd9f33dc167272c886d5fff4887876040516114b5929190918252602082015260400190565b60405180910390a4506114c86001600055565b9392505050565b600081815260046020818152604080842081516101008101835281546001600160a01b0390811682526001830154169381019390935260028101549183019190915260038101546060830152918201546080820152600582015460a0820152600682015460c082015260079091015460ff16151560e082018190526115575750600092915050565b6114c881611b84565b611568611b5a565b60008181526003602052604090206001600582015460ff16600481111561159157611591611d45565b146115ae5760405162461bcd60e51b81526004016104d090612078565b60018101546001600160a01b0316331461160a5760405162461bcd60e51b815260206004820152601760248201527f4f6e6c792070726f76696465722063616e20636c61696d00000000000000000060448201526064016104d0565b806003015442116116535760405162461bcd60e51b8152602060048201526013602482015272111958591b1a5b99481b9bdd081c185cdcd959606a1b60448201526064016104d0565b6000612710600254836002015461166a9190611fb1565b6116749190611fce565b905060008183600201546116889190611ff0565b60058401805460ff1916600217905560018401549091506116d7907f00000000000000000000000000000000000000000000000000000000000000006001600160a01b03908116911683611bd8565b811561171757600154611717906001600160a01b037f00000000000000000000000000000000000000000000000000000000000000008116911684611bd8565b604080518281526020810184905285917f1679e83f1a5c78898f99c2ad78c3681c0209a5d388b6cc90177b405b9269684a910160405180910390a25050506106eb6001600055565b611767611b5a565b60008181526003602052604090206001600582015460ff16600481111561179057611790611d45565b146117ad5760405162461bcd60e51b81526004016104d090612078565b80546001600160a01b031633146116535760405162461bcd60e51b81526020600482015260166024820152754f6e6c792070617965722063616e2072656c6561736560501b60448201526064016104d0565b6001546001600160a01b031633146118295760405162461bcd60e51b81526004016104d090612050565b600180546001600160a01b0319166001600160a01b0392909216919091179055565b611853611b5a565b60008181526003602052604090206001600582015460ff16600481111561187c5761187c611d45565b146118995760405162461bcd60e51b81526004016104d090612078565b80546001600160a01b031633146118ea5760405162461bcd60e51b815260206004820152601560248201527413db9b1e481c185e595c8818d85b8818d85b98d95b605a1b60448201526064016104d0565b6000600a826006015483600301546119029190611ff0565b61190c9190611fce565b905080826006015461191e9190612003565b4211156119635760405162461bcd60e51b815260206004820152601360248201527211dc9858d9481c195c9a5bd9081c185cdcd959606a1b60448201526064016104d0565b60058201805460ff19166004179055815460028301546119b2917f00000000000000000000000000000000000000000000000000000000000000006001600160a01b0390811692911690611bd8565b827f21cabc2fff910e5afd1e2bcb22ff2b165a41ab0afbaf364f07aaf2f7787fb90883600201546040516119e891815260200190565b60405180910390a250506106eb6001600055565b6000818152600360208181526040808420815160e08101835281546001600160a01b03908116825260018301541693810193909352600281015491830191909152918201546060828101919091526004830180548594859485949385938493916080840191611a6a90612016565b80601f0160208091040260200160405190810160405280929190818152602001828054611a9690612016565b8015611ae35780601f10611ab857610100808354040283529160200191611ae3565b820191906000526020600020905b815481529060010190602001808311611ac657829003601f168201915b5050509183525050600582015460209091019060ff166004811115611b0a57611b0a611d45565b6004811115611b1b57611b1b611d45565b81526006919091015460209182015281519082015160408301516060840151608085015160a090950151939d929c50909a509850919650945092505050565b600260005403611b7d57604051633ee5aeb560e01b815260040160405180910390fd5b6002600055565b600080826060015142611b979190611ff0565b90508260800151811115611bac575060808201515b6000836040015182611bbe9190611fb1565b90508360c0015181611bd09190611ff0565b949350505050565b6040516001600160a01b03838116602483015260448201839052611c3791859182169063a9059cbb906064015b604051602081830303815290604052915060e01b6020820180516001600160e01b038381831617835250505050611c75565b505050565b6040516001600160a01b038481166024830152838116604483015260648201839052610d199186918216906323b872dd90608401611c05565b600080602060008451602086016000885af180611c98576040513d6000823e3d81fd5b50506000513d91508115611cb0578060011415611cbd565b6001600160a01b0384163b155b15610d1957604051635274afe760e01b81526001600160a01b03851660048201526024016104d0565b600060208284031215611cf857600080fd5b5035919050565b6000815180845260005b81811015611d2557602081850181015186830182015201611d09565b506000602082860101526020601f19601f83011685010191505092915050565b634e487b7160e01b600052602160045260246000fd5b60058110611d7957634e487b7160e01b600052602160045260246000fd5b9052565b6001600160a01b03888116825287166020820152604081018690526060810185905260e060808201819052600090611db790830186611cff565b9050611dc660a0830185611d5b565b8260c083015298975050505050505050565b80356001600160a01b0381168114611def57600080fd5b919050565b60008083601f840112611e0657600080fd5b50813567ffffffffffffffff811115611e1e57600080fd5b602083019150836020828501011115611e3657600080fd5b9250929050565b60008060008060608587031215611e5357600080fd5b611e5c85611dd8565b935060208501359250604085013567ffffffffffffffff811115611e7f57600080fd5b611e8b87828801611df4565b95989497509550505050565b600080600080600060808688031215611eaf57600080fd5b611eb886611dd8565b945060208601359350604086013567ffffffffffffffff811115611edb57600080fd5b611ee788828901611df4565b96999598509660600135949350505050565b600080600060608486031215611f0e57600080fd5b611f1784611dd8565b95602085013595506040909401359392505050565b600060208284031215611f3e57600080fd5b6114c882611dd8565b6001600160a01b03878116825286166020820152604081018590526060810184905260c060808201819052600090611f8190830185611cff565b9050611f9060a0830184611d5b565b979650505050505050565b634e487b7160e01b600052601160045260246000fd5b8082028115828204841417611fc857611fc8611f9b565b92915050565b600082611feb57634e487b7160e01b600052601260045260246000fd5b500490565b81810381811115611fc857611fc8611f9b565b80820180821115611fc857611fc8611f9b565b600181811c9082168061202a57607f821691505b60208210810361204a57634e487b7160e01b600052602260045260246000fd5b50919050565b6020808252600e908201526d139bdd08185d5d1a1bdc9a5e995960921b604082015260600190565b602080825260119082015270457363726f77206e6f742061637469766560781b604082015260600190565b81835281816020850137506000828201602090810191909152601f909101601f19169091010190565b8481528360208201526060604082015260006120ec6060830184866120a3565b9695505050505050565b60006001820161210857612108611f9b565b5060010190565b60006bffffffffffffffffffffffff19808960601b168352808860601b166014840152508486602884013750602893019283019190915260488201526068019392505050565b634e487b7160e01b600052604160045260246000fd5b601f821115611c3757600081815260208120601f850160051c810160208610156121925750805b601f850160051c820191505b818110156121b15782815560010161219e565b505050505050565b815167ffffffffffffffff8111156121d3576121d3612155565b6121e7816121e18454612016565b8461216b565b602080601f83116001811461221c57600084156122045750858301515b600019600386901b1c1916600185901b1785556121b1565b600085815260208120601f198616915b8281101561224b5788860151825594840194600190910190840161222c565b50858210156122695787850151600019600388901b60f8161c191681555b5050505050600190811b01905550565b8481526060602082015260006122936060830185876120a3565b90508260408301529594505050505056fea26469706673582212202d083078980e70f98ea5ee69ec9cee804a236808bcb4f3e7a50be3a7797328be64736f6c63430008140033",
  "linkReferences": {},
  "deployedLinkReferences": {}
}