{
  "_format": "hh-sol-artifact-1",
  "contractName": "NFTFactory",
  "sourceName": "contracts/src/NFTFactory.sol",
  "abi": [
    {
      "inputs": [
        {
          "internalType": "address",
          "name": "platformFeeRecipient_",
          "type": "address"
        }
      ],
      "stateMutability": "nonpayable",
      "type": "constructor"
    },
    {
      "anonymous": false,
      "inputs": [
        {
          "indexed": true,
          "internalType": "address",
          "name": "collection",
          "type": "address"
        },
        {
          "indexed": true,
          "internalType": "address",
          "name": "creator",
          "type": "address"
        },
        {
          "indexed": false,
          "internalType": "string",
          "name": "name",
          "type": "string"
        },
        {
          "indexed": false,
          "internalType": "string",
          "name": "symbol",
          "type": "string"
        },
        {
          "indexed": false,
          "internalType": "uint256",
          "name": "maxSupply",
          "type": "uint256"
        },
        {
          "indexed": false,
          "internalType": "uint256",
          "name": "mintPrice",
          "type": "uint256"
        }
      ],
      "name": "CollectionCreated",
      "type": "event"
    },
    {
      "anonymous": false,
      "inputs": [
        {
          "indexed": true,
          "internalType": "address",
          "name": "previousOwner",
          "type": "address"
        },
        {
          "indexed": true,
          "internalType": "address",
          "name": "newOwner",
          "type": "address"
        }
      ],
      "name": "OwnershipTransferred",
      "type": "event"
    },
    {
      "anonymous": false,
      "inputs": [
        {
          "indexed": true,
          "internalType": "address",
          "name": "newRecipient",
          "type": "address"
        }
      ],
      "name": "PlatformFeeRecipientUpdated",
      "type": "event"
    },
    {
      "inputs": [
        {
          "internalType": "string",
          "name": "name",
          "type": "string"
        },
        {
          "internalType": "string",
          "name": "symbol",
          "type": "string"
        },
        {
          "internalType": "string",
          "name": "baseURI",
          "type": "string"
        },
        {
          "internalType": "uint256",
          "name": "maxSupply",
          "type": "uint256"
        },
        {
          "internalType": "uint256",
          "name": "mintPrice",
          "type": "uint256"
        },
        {
          "internalType": "uint96",
          "name": "royaltyBps",
          "type": "uint96"
        }
      ],
      "name": "createCollection",
      "outputs": [
        {
          "internalType": "address",
          "name": "",
          "type": "address"
        }
      ],
      "stateMutability": "nonpayable",
      "type": "function"
    },
    {
      "inputs": [
        {
          "internalType": "uint256",
          "name": "",
          "type": "uint256"
        }
      ],
      "name": "deployedCollections",
      "outputs": [
        {
          "internalType": "address",
          "name": "",
          "type": "address"
        }
      ],
      "stateMutability": "view",
      "type": "function"
    },
    {
      "inputs": [],
      "name": "getDeployedCollections",
      "outputs": [
        {
          "internalType": "address[]",
          "name": "",
          "type": "address[]"
        }
      ],
      "stateMutability": "view",
      "type": "function"
    },
    {
      "inputs": [],
      "name": "getDeployedCollectionsCount",
      "outputs": [
        {
          "internalType": "uint256",
          "name": "",
          "type": "uint256"
        }
      ],
      "stateMutability": "view",
      "type": "function"
    },
    {
      "inputs": [
        {
          "internalType": "address",
          "name": "",
          "type": "address"
        }
      ],
      "name": "isDeployedCollection",
      "outputs": [
        {
          "internalType": "bool",
          "name": "",
          "type": "bool"
        }
      ],
      "stateMutability": "view",
      "type": "function"
    },
    {
      "inputs": [],
      "name": "owner",
      "outputs": [
        {
          "internalType": "address",
          "name": "",
          "type": "address"
        }
      ],
      "stateMutability": "view",
      "type": "function"
    },
    {
      "inputs": [],
      "name": "platformFeeRecipient",
      "outputs": [
        {
          "internalType": "address",
          "name": "",
          "type": "address"
        }
      ],
      "stateMutability": "view",
      "type": "function"
    },
    {
      "inputs": [
        {
          "internalType": "address",
          "name": "newRecipient",
          "type": "address"
        }
      ],
      "name": "setPlatformFeeRecipient",
      "outputs": [],
      "stateMutability": "nonpayable",
      "type": "function"
    },
    {
      "inputs": [
        {
          "internalType": "address",
          "name": "newOwner",
          "type": "address"
        }
      ],
      "name": "transferOwnership",
      "outputs": [],
      "stateMutability": "nonpayable",
      "type": "function"
    }
  ],
  "bytecode": "0x608060405234801561001057600080fd5b50604051612f7b380380612f7b83398101604081905261002f91610062565b60018054336001600160a01b031991821617909155600080549091166001600160a01b0392909216919091179055610092565b60006020828403121561007457600080fd5b81516001600160a01b038116811461008b57600080fd5b9392505050565b612eda806100a16000396000f3fe60806040523480156200001157600080fd5b50600436106200009f5760003560e01c80638da5cb5b116200006e5780638da5cb5b146200013f5780639e4fe1b01462000153578063e9bbac62146200016c578063eb13554f146200017e578063f2fde38b146200019257600080fd5b80630fd42be614620000a45780631871e24314620000df57806331d9b40914620000f8578063890b29bc1462000128575b600080fd5b620000ca620000b53660046200063d565b60026020526000908152604090205460ff1681565b60405190151581526020015b60405180910390f35b620000f6620000f03660046200063d565b620001a9565b005b6200010f620001093660046200066f565b62000287565b6040516001600160a01b039091168152602001620000d6565b6200010f6200013936600462000734565b620002b2565b6001546200010f906001600160a01b031681565b6200015d620004e7565b604051620000d69190620007fa565b600354604051908152602001620000d6565b6000546200010f906001600160a01b031681565b620000f6620001a33660046200063d565b6200054b565b6001546001600160a01b03163314620001f55760405162461bcd60e51b81526020600482015260096024820152682737ba1037bbb732b960b91b60448201526064015b60405180910390fd5b6001600160a01b0381166200023f5760405162461bcd60e51b815260206004820152600f60248201526e496e76616c6964206164647265737360881b6044820152606401620001ec565b600080546001600160a01b0319166001600160a01b038316908117825560405190917fba887708e7d4436dd36b62187bdced03e0b9abe66caf392a66dd84386641b20991a250565b600381815481106200029857600080fd5b6000918252602090912001546001600160a01b0316905081565b600080875111620002f65760405162461bcd60e51b815260206004820152600d60248201526c13985b59481c995c5d5a5c9959609a1b6044820152606401620001ec565b60008651116200033b5760405162461bcd60e51b815260206004820152600f60248201526e14de5b589bdb081c995c5d5a5c9959608a1b6044820152606401620001ec565b6000855111620003825760405162461bcd60e51b815260206004820152601160248201527010985cd948155492481c995c5d5a5c9959607a1b6044820152606401620001ec565b6103e8826001600160601b03161115620003d25760405162461bcd60e51b815260206004820152601060248201526f0a4def2c2d8e8f240e8dede40d0d2ced60831b6044820152606401620001ec565b600087878787873360008054906101000a90046001600160a01b031689604051620003fd906200062f565b6200041098979695949392919062000891565b604051809103906000f0801580156200042d573d6000803e3d6000fd5b506001600160a01b038116600081815260026020526040808220805460ff191660019081179091556003805491820181559092527fc2575a0e9e593c00f959f8c92f12db2869c3395a3b0502d05e2516446f71f85b90910180546001600160a01b031916831790555191925082913391907f8b191557afa6a02003a58f9c53041c9704d06bbad5df81dbaa8ddcf35ccdf1b090620004d3908d908d908c908c9062000912565b60405180910390a398975050505050505050565b606060038054806020026020016040519081016040528092919081815260200182805480156200054157602002820191906000526020600020905b81546001600160a01b0316815260019091019060200180831162000522575b5050505050905090565b6001546001600160a01b03163314620005935760405162461bcd60e51b81526020600482015260096024820152682737ba1037bbb732b960b91b6044820152606401620001ec565b6001600160a01b038116620005dd5760405162461bcd60e51b815260206004820152600f60248201526e496e76616c6964206164647265737360881b6044820152606401620001ec565b600180546001600160a01b038381166001600160a01b0319831681179093556040519116919082907f8be0079c531659141344cd1fd0a4f28419497f9722a3daafe3b4186f6b6457e090600090a35050565b612555806200095083390190565b6000602082840312156200065057600080fd5b81356001600160a01b03811681146200066857600080fd5b9392505050565b6000602082840312156200068257600080fd5b5035919050565b634e487b7160e01b600052604160045260246000fd5b600082601f830112620006b157600080fd5b813567ffffffffffffffff80821115620006cf57620006cf62000689565b604051601f8301601f19908116603f01168101908282118183101715620006fa57620006fa62000689565b816040528381528660208588010111156200071457600080fd5b836020870160208301376000602085830101528094505050505092915050565b60008060008060008060c087890312156200074e57600080fd5b863567ffffffffffffffff808211156200076757600080fd5b620007758a838b016200069f565b975060208901359150808211156200078c57600080fd5b6200079a8a838b016200069f565b96506040890135915080821115620007b157600080fd5b50620007c089828a016200069f565b945050606087013592506080870135915060a08701356001600160601b0381168114620007ec57600080fd5b809150509295509295509295565b6020808252825182820181905260009190848201906040850190845b818110156200083d5783516001600160a01b03168352928401929184019160010162000816565b50909695505050505050565b6000815180845260005b81811015620008715760208185018101518683018201520162000853565b506000602082860101526020601f19601f83011685010191505092915050565b6000610100808352620008a78184018c62000849565b90508281036020840152620008bd818b62000849565b90508281036040840152620008d3818a62000849565b6060840198909852505060808101949094526001600160a01b0392831660a0850152911660c08301526001600160601b031660e0909101529392505050565b60808152600062000927608083018762000849565b82810360208401526200093b818762000849565b60408401959095525050606001529291505056fe60806040526013805460ff191660011790553480156200001e57600080fd5b5060405162002555380380620025558339810160408190526200004191620002e6565b828888600062000052838262000452565b50600162000061828262000452565b5050506001600160a01b0381166200009457604051631e4fbdf760e01b8152600060048201526024015b60405180910390fd5b6200009f81620000f3565b506001600d556010620000b3878262000452565b50600e859055600f849055601180546001600160a01b0319166001600160a01b038416179055620000e5838262000145565b50505050505050506200051e565b600c80546001600160a01b038381166001600160a01b0319831681179093556040519116919082907f8be0079c531659141344cd1fd0a4f28419497f9722a3daafe3b4186f6b6457e090600090a35050565b6127106001600160601b0382168110156200018657604051636f483d0960e01b81526001600160601b0383166004820152602481018290526044016200008b565b6001600160a01b038316620001b257604051635b6cc80560e11b8152600060048201526024016200008b565b50604080518082019091526001600160a01b039092168083526001600160601b039091166020909201829052600160a01b90910217600a55565b634e487b7160e01b600052604160045260246000fd5b600082601f8301126200021457600080fd5b81516001600160401b0380821115620002315762000231620001ec565b604051601f8301601f19908116603f011681019082821181831017156200025c576200025c620001ec565b816040528381526020925086838588010111156200027957600080fd5b600091505b838210156200029d57858201830151818301840152908201906200027e565b600093810190920192909252949350505050565b80516001600160a01b0381168114620002c957600080fd5b919050565b80516001600160601b0381168114620002c957600080fd5b600080600080600080600080610100898b0312156200030457600080fd5b88516001600160401b03808211156200031c57600080fd5b6200032a8c838d0162000202565b995060208b01519150808211156200034157600080fd5b6200034f8c838d0162000202565b985060408b01519150808211156200036657600080fd5b50620003758b828c0162000202565b96505060608901519450608089015193506200039460a08a01620002b1565b9250620003a460c08a01620002b1565b9150620003b460e08a01620002ce565b90509295985092959890939650565b600181811c90821680620003d857607f821691505b602082108103620003f957634e487b7160e01b600052602260045260246000fd5b50919050565b601f8211156200044d57600081815260208120601f850160051c81016020861015620004285750805b601f850160051c820191505b81811015620004495782815560010162000434565b5050505b505050565b81516001600160401b038111156200046e576200046e620001ec565b62000486816200047f8454620003c3565b84620003ff565b602080601f831160018114620004be5760008415620004a55750858301515b600019600386901b1c1916600185901b17855562000449565b600085815260208120601f198616915b82811015620004ef57888601518255948401946001909101908401620004ce565b50858210156200050e5787850151600019600388901b60f8161c191681555b5050505050600190811b01905550565b612027806200052e6000396000f3fe6080604052600436106101d85760003560e01c806370a0823111610102578063a2309ff811610095578063db2e21bc11610064578063db2e21bc14610521578063e985e9c514610536578063eb13554f14610556578063f2fde38b1461057657600080fd5b8063a2309ff8146104b6578063b88d4fde146104cb578063c87b56dd146104eb578063d5abeb011461050b57600080fd5b806395d89b41116100d157806395d89b41146104545780639fd6db1214610469578063a0712d6814610483578063a22cb4651461049657600080fd5b806370a08231146103ec578063715018a61461040c5780637d55094d146104215780638da5cb5b1461043657600080fd5b80632f745c591161017a57806355f804b31161014957806355f804b3146103815780636352211e146103a15780636817c76c146103c15780636c0360eb146103d757600080fd5b80632f745c591461030c57806342842e0e1461032c5780634f6ccce71461034c578063539aa77f1461036c57600080fd5b8063095ea7b3116101b6578063095ea7b31461026c57806318160ddd1461028e57806323b872dd146102ad5780632a55205a146102cd57600080fd5b806301ffc9a7146101dd57806306fdde0314610212578063081812fc14610234575b600080fd5b3480156101e957600080fd5b506101fd6101f83660046119f7565b610596565b60405190151581526020015b60405180910390f35b34801561021e57600080fd5b506102276105a7565b6040516102099190611a6b565b34801561024057600080fd5b5061025461024f366004611a7e565b610639565b6040516001600160a01b039091168152602001610209565b34801561027857600080fd5b5061028c610287366004611ab3565b610662565b005b34801561029a57600080fd5b506008545b604051908152602001610209565b3480156102b957600080fd5b5061028c6102c8366004611add565b610671565b3480156102d957600080fd5b506102ed6102e8366004611b19565b610701565b604080516001600160a01b039093168352602083019190915201610209565b34801561031857600080fd5b5061029f610327366004611ab3565b610786565b34801561033857600080fd5b5061028c610347366004611add565b6107eb565b34801561035857600080fd5b5061029f610367366004611a7e565b61080b565b34801561037857600080fd5b5061029f60fa81565b34801561038d57600080fd5b5061028c61039c366004611bc7565b610864565b3480156103ad57600080fd5b506102546103bc366004611a7e565b6108b3565b3480156103cd57600080fd5b5061029f600f5481565b3480156103e357600080fd5b506102276108be565b3480156103f857600080fd5b5061029f610407366004611c10565b61094c565b34801561041857600080fd5b5061028c610994565b34801561042d57600080fd5b5061028c6109a8565b34801561044257600080fd5b50600c546001600160a01b0316610254565b34801561046057600080fd5b506102276109fd565b34801561047557600080fd5b506013546101fd9060ff1681565b61028c610491366004611a7e565b610a0c565b3480156104a257600080fd5b5061028c6104b1366004611c2b565b610d55565b3480156104c257600080fd5b5060125461029f565b3480156104d757600080fd5b5061028c6104e6366004611c67565b610d60565b3480156104f757600080fd5b50610227610506366004611a7e565b610d78565b34801561051757600080fd5b5061029f600e5481565b34801561052d57600080fd5b5061028c610db6565b34801561054257600080fd5b506101fd610551366004611ce3565b610efb565b34801561056257600080fd5b50601154610254906001600160a01b031681565b34801561058257600080fd5b5061028c610591366004611c10565b610f29565b60006105a182610f64565b92915050565b6060600080546105b690611d16565b80601f01602080910402602001604051908101604052809291908181526020018280546105e290611d16565b801561062f5780601f106106045761010080835404028352916020019161062f565b820191906000526020600020905b81548152906001019060200180831161061257829003601f168201915b5050505050905090565b600061064482610f89565b506000828152600460205260409020546001600160a01b03166105a1565b61066d828233610fc2565b5050565b6001600160a01b0382166106a057604051633250574960e11b8152600060048201526024015b60405180910390fd5b60006106ad838333610fcf565b9050836001600160a01b0316816001600160a01b0316146106fb576040516364283d7b60e01b81526001600160a01b0380861660048301526024820184905282166044820152606401610697565b50505050565b6000828152600b6020526040812080548291906001600160a01b03811690600160a01b90046001600160601b031681610755575050600a546001600160a01b03811690600160a01b90046001600160601b03165b600061271061076d6001600160601b03841689611d66565b6107779190611d7d565b92989297509195505050505050565b60006107918361094c565b82106107c25760405163295f44f760e21b81526001600160a01b038416600482015260248101839052604401610697565b506001600160a01b03919091166000908152600660209081526040808320938352929052205490565b61080683838360405180602001604052806000815250610d60565b505050565b600061081660085490565b821061083f5760405163295f44f760e21b81526000600482015260248101839052604401610697565b6008828154811061085257610852611d9f565b90600052602060002001549050919050565b61086c610fe4565b60106108788282611dfb565b507f6741b2fc379fad678116fe3d4d4b9a1a184ab53ba36b86ad0fa66340b1ab41ad816040516108a89190611a6b565b60405180910390a150565b60006105a182610f89565b601080546108cb90611d16565b80601f01602080910402602001604051908101604052809291908181526020018280546108f790611d16565b80156109445780601f1061091957610100808354040283529160200191610944565b820191906000526020600020905b81548152906001019060200180831161092757829003601f168201915b505050505081565b60006001600160a01b038216610978576040516322718ad960e21b815260006004820152602401610697565b506001600160a01b031660009081526003602052604090205490565b61099c610fe4565b6109a66000611011565b565b6109b0610fe4565b6013805460ff8082161560ff1990921682179092556040519116151581527f6bdfe227d5db299c59aa56d5f846f40dbd73b271aaa78e18ed74fc3e00b8aa6b9060200160405180910390a1565b6060600180546105b690611d16565b610a14611063565b60135460ff16610a595760405162461bcd60e51b815260206004820152601060248201526f135a5b9d1a5b99c8191a5cd8589b195960821b6044820152606401610697565b60008111610aa05760405162461bcd60e51b815260206004820152601460248201527305175616e74697479206d757374206265203e20360641b6044820152606401610697565b600e541580610abe5750600e5481601254610abb9190611ebb565b11155b610aff5760405162461bcd60e51b815260206004820152601260248201527145786365656473206d617820737570706c7960701b6044820152606401610697565b80600f54610b0d9190611d66565b341015610b535760405162461bcd60e51b8152602060048201526014602482015273125b9cdd59999a58da595b9d081c185e5b595b9d60621b6044820152606401610697565b60005b81811015610bbf5760128054906000610b6e83611ece565b9190505550610b7f3360125461108d565b60125460405133907f30385c845b448a36257a6a1716e6ad2e1bc2cbe333cde1e69fe849ad6511adfe90600090a380610bb781611ece565b915050610b56565b503415610d48576000612710610bd660fa34611d66565b610be09190611d7d565b90506000610bee8234611ee7565b6011546040519192506000916001600160a01b039091169084908381818185875af1925050503d8060008114610c40576040519150601f19603f3d011682016040523d82523d6000602084013e610c45565b606091505b5050905080610c965760405162461bcd60e51b815260206004820152601c60248201527f506c6174666f726d20666565207472616e73666572206661696c6564000000006044820152606401610697565b6000610caa600c546001600160a01b031690565b6001600160a01b03168360405160006040518083038185875af1925050503d8060008114610cf4576040519150601f19603f3d011682016040523d82523d6000602084013e610cf9565b606091505b5050905080610d435760405162461bcd60e51b815260206004820152601660248201527510dc99585d1bdc881c185e5b595b9d0819985a5b195960521b6044820152606401610697565b505050505b610d526001600d55565b50565b61066d3383836110a7565b610d6b848484610671565b6106fb3385858585611146565b6060610d8382610f89565b506010610d8f83611271565b604051602001610da0929190611efa565b6040516020818303038152906040529050919050565b610dbe610fe4565b4780610e035760405162461bcd60e51b81526020600482015260146024820152734e6f2066756e647320746f20776974686472617760601b6044820152606401610697565b6000610e17600c546001600160a01b031690565b6001600160a01b03168260405160006040518083038185875af1925050503d8060008114610e61576040519150601f19603f3d011682016040523d82523d6000602084013e610e66565b606091505b5050905080610ea95760405162461bcd60e51b815260206004820152600f60248201526e15da5d1a191c985dc819985a5b1959608a1b6044820152606401610697565b600c546001600160a01b03166001600160a01b03167feaff4b37086828766ad3268786972c0cd24259d4c87a80f9d3963a3c3d999b0d83604051610eef91815260200190565b60405180910390a25050565b6001600160a01b03918216600090815260056020908152604080832093909416825291909152205460ff1690565b610f31610fe4565b6001600160a01b038116610f5b57604051631e4fbdf760e01b815260006004820152602401610697565b610d5281611011565b60006001600160e01b0319821663152a902d60e11b14806105a157506105a182611304565b6000818152600260205260408120546001600160a01b0316806105a157604051637e27328960e01b815260048101849052602401610697565b6108068383836001611329565b6000610fdc84848461142f565b949350505050565b600c546001600160a01b031633146109a65760405163118cdaa760e01b8152336004820152602401610697565b600c80546001600160a01b038381166001600160a01b0319831681179093556040519116919082907f8be0079c531659141344cd1fd0a4f28419497f9722a3daafe3b4186f6b6457e090600090a35050565b6002600d540361108657604051633ee5aeb560e01b815260040160405180910390fd5b6002600d55565b61066d8282604051806020016040528060008152506114fc565b6001600160a01b0382166110d957604051630b61174360e31b81526001600160a01b0383166004820152602401610697565b6001600160a01b03838116600081815260056020908152604080832094871680845294825291829020805460ff191686151590811790915591519182527f17307eab39ab6107e8899845ad3d59bd9653f200f220920489ca2b5937696c31910160405180910390a3505050565b6001600160a01b0383163b1561126a57604051630a85bd0160e11b81526001600160a01b0384169063150b7a0290611188908890889087908790600401611f81565b6020604051808303816000875af19250505080156111c3575060408051601f3d908101601f191682019092526111c091810190611fbe565b60015b61122c573d8080156111f1576040519150601f19603f3d011682016040523d82523d6000602084013e6111f6565b606091505b50805160000361122457604051633250574960e11b81526001600160a01b0385166004820152602401610697565b805160208201fd5b6001600160e01b03198116630a85bd0160e11b1461126857604051633250574960e11b81526001600160a01b0385166004820152602401610697565b505b5050505050565b6060600061127e83611514565b600101905060008167ffffffffffffffff81111561129e5761129e611b3b565b6040519080825280601f01601f1916602001820160405280156112c8576020820181803683370190505b5090508181016020015b600019016f181899199a1a9b1b9c1cb0b131b232b360811b600a86061a8153600a85049450846112d257509392505050565b60006001600160e01b0319821663780e9d6360e01b14806105a157506105a1826115ec565b808061133d57506001600160a01b03821615155b156113ff57600061134d84610f89565b90506001600160a01b038316158015906113795750826001600160a01b0316816001600160a01b031614155b801561138c575061138a8184610efb565b155b156113b55760405163a9fbf51f60e01b81526001600160a01b0384166004820152602401610697565b81156113fd5783856001600160a01b0316826001600160a01b03167f8c5be1e5ebec7d5bd14f71427d1e84f3dd0314c0f7b2291e5b200ac8c7c3b92560405160405180910390a45b505b5050600090815260046020526040902080546001600160a01b0319166001600160a01b0392909216919091179055565b60008061143d85858561163c565b90506001600160a01b03811661149a5761149584600880546000838152600960205260408120829055600182018355919091527ff3f7a9fe364faab93b216da50a3214154f22a0a2b415b23a84c8169e8b636ee30155565b6114bd565b846001600160a01b0316816001600160a01b0316146114bd576114bd8185611735565b6001600160a01b0385166114d9576114d4846117b6565b610fdc565b846001600160a01b0316816001600160a01b031614610fdc57610fdc8585611865565b61150683836118b5565b610806336000858585611146565b60008072184f03e93ff9f4daa797ed6e38ed64bf6a1f0160401b83106115535772184f03e93ff9f4daa797ed6e38ed64bf6a1f0160401b830492506040015b6d04ee2d6d415b85acef8100000000831061157f576d04ee2d6d415b85acef8100000000830492506020015b662386f26fc10000831061159d57662386f26fc10000830492506010015b6305f5e10083106115b5576305f5e100830492506008015b61271083106115c957612710830492506004015b606483106115db576064830492506002015b600a83106105a15760010192915050565b60006001600160e01b031982166380ac58cd60e01b148061161d57506001600160e01b03198216635b5e139f60e01b145b806105a157506301ffc9a760e01b6001600160e01b03198316146105a1565b6000828152600260205260408120546001600160a01b03908116908316156116695761166981848661191a565b6001600160a01b038116156116a757611686600085600080611329565b6001600160a01b038116600090815260036020526040902080546000190190555b6001600160a01b038516156116d6576001600160a01b0385166000908152600360205260409020805460010190555b60008481526002602052604080822080546001600160a01b0319166001600160a01b0389811691821790925591518793918516917fddf252ad1be2c89b69c2b068fc378daa952ba7f163c4a11628f55a4df523b3ef91a4949350505050565b60006117408361094c565b6000838152600760209081526040808320546001600160a01b038816845260069092529091209192509081831461179757600083815260208281526040808320548584528184208190558352600790915290208290555b6000938452600760209081526040808620869055938552525081205550565b6008546000906117c890600190611ee7565b600083815260096020526040812054600880549394509092849081106117f0576117f0611d9f565b90600052602060002001549050806008838154811061181157611811611d9f565b600091825260208083209091019290925582815260099091526040808220849055858252812055600880548061184957611849611fdb565b6001900381819060005260206000200160009055905550505050565b600060016118728461094c565b61187c9190611ee7565b6001600160a01b039093166000908152600660209081526040808320868452825280832085905593825260079052919091209190915550565b6001600160a01b0382166118df57604051633250574960e11b815260006004820152602401610697565b60006118ed83836000610fcf565b90506001600160a01b03811615610806576040516339e3563760e11b815260006004820152602401610697565b61192583838361197e565b610806576001600160a01b03831661195357604051637e27328960e01b815260048101829052602401610697565b60405163177e802f60e01b81526001600160a01b038316600482015260248101829052604401610697565b60006001600160a01b03831615801590610fdc5750826001600160a01b0316846001600160a01b031614806119b857506119b88484610efb565b80610fdc5750506000908152600460205260409020546001600160a01b03908116911614919050565b6001600160e01b031981168114610d5257600080fd5b600060208284031215611a0957600080fd5b8135611a14816119e1565b9392505050565b60005b83811015611a36578181015183820152602001611a1e565b50506000910152565b60008151808452611a57816020860160208601611a1b565b601f01601f19169290920160200192915050565b602081526000611a146020830184611a3f565b600060208284031215611a9057600080fd5b5035919050565b80356001600160a01b0381168114611aae57600080fd5b919050565b60008060408385031215611ac657600080fd5b611acf83611a97565b946020939093013593505050565b600080600060608486031215611af257600080fd5b611afb84611a97565b9250611b0960208501611a97565b9150604084013590509250925092565b60008060408385031215611b2c57600080fd5b50508035926020909101359150565b634e487b7160e01b600052604160045260246000fd5b600067ffffffffffffffff80841115611b6c57611b6c611b3b565b604051601f8501601f19908116603f01168101908282118183101715611b9457611b94611b3b565b81604052809350858152868686011115611bad57600080fd5b858560208301376000602087830101525050509392505050565b600060208284031215611bd957600080fd5b813567ffffffffffffffff811115611bf057600080fd5b8201601f81018413611c0157600080fd5b610fdc84823560208401611b51565b600060208284031215611c2257600080fd5b611a1482611a97565b60008060408385031215611c3e57600080fd5b611c4783611a97565b915060208301358015158114611c5c57600080fd5b809150509250929050565b60008060008060808587031215611c7d57600080fd5b611c8685611a97565b9350611c9460208601611a97565b925060408501359150606085013567ffffffffffffffff811115611cb757600080fd5b8501601f81018713611cc857600080fd5b611cd787823560208401611b51565b91505092959194509250565b60008060408385031215611cf657600080fd5b611cff83611a97565b9150611d0d60208401611a97565b90509250929050565b600181811c90821680611d2a57607f821691505b602082108103611d4a57634e487b7160e01b600052602260045260246000fd5b50919050565b634e487b7160e01b600052601160045260246000fd5b80820281158282048414176105a1576105a1611d50565b600082611d9a57634e487b7160e01b600052601260045260246000fd5b500490565b634e487b7160e01b600052603260045260246000fd5b601f82111561080657600081815260208120601f850160051c81016020861015611ddc5750805b601f850160051c820191505b8181101561126857828155600101611de8565b815167ffffffffffffffff811115611e1557611e15611b3b565b611e2981611e238454611d16565b84611db5565b602080601f831160018114611e5e5760008415611e465750858301515b600019600386901b1c1916600185901b178555611268565b600085815260208120601f198616915b82811015611e8d57888601518255948401946001909101908401611e6e565b5085821015611eab5787850151600019600388901b60f8161c191681555b5050505050600190811b01905550565b808201808211156105a1576105a1611d50565b600060018201611ee057611ee0611d50565b5060010190565b818103818111156105a1576105a1611d50565b6000808454611f0881611d16565b60018281168015611f205760018114611f3557611f64565b60ff1984168752821515830287019450611f64565b8860005260208060002060005b85811015611f5b5781548a820152908401908201611f42565b50505082870194505b505050508351611f78818360208801611a1b565b01949350505050565b6001600160a01b0385811682528416602082015260408101839052608060608201819052600090611fb490830184611a3f565b9695505050505050565b600060208284031215611fd057600080fd5b8151611a14816119e1565b634e487b7160e01b600052603160045260246000fdfea264697066735822122023d408451612ded89960c6d961d4874945c151c92d74854094e85565049d882264736f6c63430008140033a26469706673582212200c78dbaf76707abf6efed9d502a183471ecf9432774e92e8164a0564cc23a3df64736f6c63430008140033",
  "linkReferences": {},
  "deployedLinkReferences": {}
}