{
  "_format": "hh-sol-artifact-1",
  "contractName": "AgentNFT",
  "sourceName": "contracts/src/AgentNFT.sol",
  "abi": [
    {
      "inputs": [
        {
          "internalType": "string",
          "name": "name_",
          "type": "string"
        },
        {
          "internalType": "string",
          "name": "symbol_",
          "type": "string"
        },
        {
          "internalType": "string",
          "name": "baseURI_",
          "type": "string"
        },
        {
          "internalType": "uint256",
          "name": "maxSupply_",
          "type": "uint256"
        },
        {
          "internalType": "uint256",
          "name": "mintPrice_",
          "type": "uint256"
        },
        {
          "internalType": "address",
          "name": "creator_",
          "type": "address"
        },
        {
          "internalType": "address",
          "name": "platformFeeRecipient_",
          "type": "address"
        },
        {
          "internalType": "uint96",
          "name": "royaltyBps_",
          "type": "uint96"
        },
        {
          "internalType": "address",
          "name": "usdcAddress_",
          "type": "address"
        }
      ],
      "stateMutability": "nonpayable",
      "type": "constructor"
    },
    {
      "inputs": [
        {
          "internalType": "uint256",
          "name": "numerator",
          "type": "uint256"
        },
        {
          "internalType": "uint256",
          "name": "denominator",
          "type": "uint256"
        }
      ],
      "name": "ERC2981InvalidDefaultRoyalty",
      "type": "error"
    },
    {
      "inputs": [
        {
          "internalType": "address",
          "name": "receiver",
          "type": "address"
        }
      ],
      "name": "ERC2981InvalidDefaultRoyaltyReceiver",
      "type": "error"
    },
    {
      "inputs": [
        {
          "internalType": "uint256",
          "name": "tokenId",
          "type": "uint256"
        },
        {
          "internalType": "uint256",
          "name": "numerator",
          "type": "uint256"
        },
        {
          "internalType": "uint256",
          "name": "denominator",
          "type": "uint256"
        }
      ],
      "name": "ERC2981InvalidTokenRoyalty",
      "type": "error"
    },
    {
      "inputs": [
        {
          "internalType": "uint256",
          "name": "tokenId",
          "type": "uint256"
        },
        {
          "internalType": "address",
          "name": "receiver",
          "type": "address"
        }
      ],
      "name": "ERC2981InvalidTokenRoyaltyReceiver",
      "type": "error"
    },
    {
      "inputs": [],
      "name": "ERC721EnumerableForbiddenBatchMint",
      "type": "error"
    },
    {
      "inputs": [
        {
          "internalType": "address",
          "name": "sender",
          "type": "address"
        },
        {
          "internalType": "uint256",
          "name": "tokenId",
          "type": "uint256"
        },
        {
          "internalType": "address",
          "name": "owner",
          "type": "address"
        }
      ],
      "name": "ERC721IncorrectOwner",
      "type": "error"
    },
    {
      "inputs": [
        {
          "internalType": "address",
          "name": "operator",
          "type": "address"
        },
        {
          "internalType": "uint256",
          "name": "tokenId",
          "type": "uint256"
        }
      ],
      "name": "ERC721InsufficientApproval",
      "type": "error"
    },
    {
      "inputs": [
        {
          "internalType": "address",
          "name": "approver",
          "type": "address"
        }
      ],
      "name": "ERC721InvalidApprover",
      "type": "error"
    },
    {
      "inputs": [
        {
          "internalType": "address",
          "name": "operator",
          "type": "address"
        }
      ],
      "name": "ERC721InvalidOperator",
      "type": "error"
    },
    {
      "inputs": [
        {
          "internalType": "address",
          "name": "owner",
          "type": "address"
        }
      ],
      "name": "ERC721InvalidOwner",
      "type": "error"
    },
    {
      "inputs": [
        {
          "internalType": "address",
          "name": "receiver",
          "type": "address"
        }
      ],
      "name": "ERC721InvalidReceiver",
      "type": "error"
    },
    {
      "inputs": [
        {
          "internalType": "address",
          "name": "sender",
          "type": "address"
        }
      ],
      "name": "ERC721InvalidSender",
      "type": "error"
    },
    {
      "inputs": [
        {
          "internalType": "uint256",
          "name": "tokenId",
          "type": "uint256"
        }
      ],
      "name": "ERC721NonexistentToken",
      "type": "error"
    },
    {
      "inputs": [
        {
          "internalType": "address",
          "name": "owner",
          "type": "address"
        },
        {
          "internalType": "uint256",
          "name": "index",
          "type": "uint256"
        }
      ],
      "name": "ERC721OutOfBoundsIndex",
      "type": "error"
    },
    {
      "inputs": [
        {
          "internalType": "address",
          "name": "owner",
          "type": "address"
        }
      ],
      "name": "OwnableInvalidOwner",
      "type": "error"
    },
    {
      "inputs": [
        {
          "internalType": "address",
          "name": "account",
          "type": "address"
        }
      ],
      "name": "OwnableUnauthorizedAccount",
      "type": "error"
    },
    {
      "inputs": [],
      "name": "ReentrancyGuardReentrantCall",
      "type": "error"
    },
    {
      "inputs": [
        {
          "internalType": "address",
          "name": "token",
          "type": "address"
        }
      ],
      "name": "SafeERC20FailedOperation",
      "type": "error"
    },
    {
      "anonymous": false,
      "inputs": [
        {
          "indexed": true,
          "internalType": "address",
          "name": "owner",
          "type": "address"
        },
        {
          "indexed": true,
          "internalType": "address",
          "name": "approved",
          "type": "address"
        },
        {
          "indexed": true,
          "internalType": "uint256",
          "name": "tokenId",
          "type": "uint256"
        }
      ],
      "name": "Approval",
      "type": "event"
    },
    {
      "anonymous": false,
      "inputs": [
        {
          "indexed": true,
          "internalType": "address",
          "name": "owner",
          "type": "address"
        },
        {
          "indexed": true,
          "internalType": "address",
          "name": "operator",
          "type": "address"
        },
        {
          "indexed": false,
          "internalType": "bool",
          "name": "approved",
          "type": "bool"
        }
      ],
      "name": "ApprovalForAll",
      "type": "event"
    },
    {
      "anonymous": false,
      "inputs": [
        {
          "indexed": false,
          "internalType": "string",
          "name": "newBaseURI",
          "type": "string"
        }
      ],
      "name": "BaseURIUpdated",
      "type": "event"
    },
    {
      "anonymous": false,
      "inputs": [
        {
          "indexed": true,
          "internalType": "address",
          "name": "to",
          "type": "address"
        },
        {
          "indexed": false,
          "internalType": "uint256",
          "name": "amount",
          "type": "uint256"
        }
      ],
      "name": "FundsWithdrawn",
      "type": "event"
    },
    {
      "anonymous": false,
      "inputs": [
        {
          "indexed": true,
          "internalType": "address",
          "name": "to",
          "type": "address"
        },
        {
          "indexed": true,
          "internalType": "uint256",
          "name": "tokenId",
          "type": "uint256"
        }
      ],
      "name": "Minted",
      "type": "event"
    },
    {
      "anonymous": false,
      "inputs": [
        {
          "indexed": false,
          "internalType": "bool",
          "name": "enabled",
          "type": "bool"
        }
      ],
      "name": "MintingToggled",
      "type": "event"
    },
    {
      "anonymous": false,
      "inputs": [
        {
          "indexed": true,
          "internalType": "address",
          "name": "previousOwner",
          "type": "address"
        },
        {
          "indexed": true,
          "internalType": "address",
          "name": "newOwner",
          "type": "address"
        }
      ],
      "name": "OwnershipTransferred",
      "type": "event"
    },
    {
      "anonymous": false,
      "inputs": [
        {
          "indexed": true,
          "internalType": "address",
          "name": "from",
          "type": "address"
        },
        {
          "indexed": true,
          "internalType": "address",
          "name": "to",
          "type": "address"
        },
        {
          "indexed": true,
          "internalType": "uint256",
          "name": "tokenId",
          "type": "uint256"
        }
      ],
      "name": "Transfer",
      "type": "event"
    },
    {
      "inputs": [],
      "name": "PLATFORM_FEE_BPS",
      "outputs": [
        {
          "internalType": "uint256",
          "name": "",
          "type": "uint256"
        }
      ],
      "stateMutability": "view",
      "type": "function"
    },
    {
      "inputs": [
        {
          "internalType": "address",
          "name": "to",
          "type": "address"
        },
        {
          "internalType": "uint256",
          "name": "tokenId",
          "type": "uint256"
        }
      ],
      "name": "approve",
      "outputs": [],
      "stateMutability": "nonpayable",
      "type": "function"
    },
    {
      "inputs": [
        {
          "internalType": "address",
          "name": "owner",
          "type": "address"
        }
      ],
      "name": "balanceOf",
      "outputs": [
        {
          "internalType": "uint256",
          "name": "",
          "type": "uint256"
        }
      ],
      "stateMutability": "view",
      "type": "function"
    },
    {
      "inputs": [],
      "name": "baseURI",
      "outputs": [
        {
          "internalType": "string",
          "name": "",
          "type": "string"
        }
      ],
      "stateMutability": "view",
      "type": "function"
    },
    {
      "inputs": [
        {
          "internalType": "address",
          "name": "token",
          "type": "address"
        }
      ],
      "name": "emergencyWithdraw",
      "outputs": [],
      "stateMutability": "nonpayable",
      "type": "function"
    },
    {
      "inputs": [
        {
          "internalType": "uint256",
          "name": "tokenId",
          "type": "uint256"
        }
      ],
      "name": "getApproved",
      "outputs": [
        {
          "internalType": "address",
          "name": "",
          "type": "address"
        }
      ],
      "stateMutability": "view",
      "type": "function"
    },
    {
      "inputs": [
        {
          "internalType": "address",
          "name": "owner",
          "type": "address"
        },
        {
          "internalType": "address",
          "name": "operator",
          "type": "address"
        }
      ],
      "name": "isApprovedForAll",
      "outputs": [
        {
          "internalType": "bool",
          "name": "",
          "type": "bool"
        }
      ],
      "stateMutability": "view",
      "type": "function"
    },
    {
      "inputs": [],
      "name": "maxSupply",
      "outputs": [
        {
          "internalType": "uint256",
          "name": "",
          "type": "uint256"
        }
      ],
      "stateMutability": "view",
      "type": "function"
    },
    {
      "inputs": [
        {
          "internalType": "uint256",
          "name": "quantity",
          "type": "uint256"
        }
      ],
      "name": "mint",
      "outputs": [],
      "stateMutability": "nonpayable",
      "type": "function"
    },
    {
      "inputs": [],
      "name": "mintPrice",
      "outputs": [
        {
          "internalType": "uint256",
          "name": "",
          "type": "uint256"
        }
      ],
      "stateMutability": "view",
      "type": "function"
    },
    {
      "inputs": [],
      "name": "mintingEnabled",
      "outputs": [
        {
          "internalType": "bool",
          "name": "",
          "type": "bool"
        }
      ],
      "stateMutability": "view",
      "type": "function"
    },
    {
      "inputs": [],
      "name": "name",
      "outputs": [
        {
          "internalType": "string",
          "name": "",
          "type": "string"
        }
      ],
      "stateMutability": "view",
      "type": "function"
    },
    {
      "inputs": [],
      "name": "owner",
      "outputs": [
        {
          "internalType": "address",
          "name": "",
          "type": "address"
        }
      ],
      "stateMutability": "view",
      "type": "function"
    },
    {
      "inputs": [
        {
          "internalType": "uint256",
          "name": "tokenId",
          "type": "uint256"
        }
      ],
      "name": "ownerOf",
      "outputs": [
        {
          "internalType": "address",
          "name": "",
          "type": "address"
        }
      ],
      "stateMutability": "view",
      "type": "function"
    },
    {
      "inputs": [],
      "name": "platformFeeRecipient",
      "outputs": [
        {
          "internalType": "address",
          "name": "",
          "type": "address"
        }
      ],
      "stateMutability": "view",
      "type": "function"
    },
    {
      "inputs": [],
      "name": "renounceOwnership",
      "outputs": [],
      "stateMutability": "nonpayable",
      "type": "function"
    },
    {
      "inputs": [
        {
          "internalType": "uint256",
          "name": "tokenId",
          "type": "uint256"
        },
        {
          "internalType": "uint256",
          "name": "salePrice",
          "type": "uint256"
        }
      ],
      "name": "royaltyInfo",
      "outputs": [
        {
          "internalType": "address",
          "name": "receiver",
          "type": "address"
        },
        {
          "internalType": "uint256",
          "name": "amount",
          "type": "uint256"
        }
      ],
      "stateMutability": "view",
      "type": "function"
    },
    {
      "inputs": [
        {
          "internalType": "address",
          "name": "from",
          "type": "address"
        },
        {
          "internalType": "address",
          "name": "to",
          "type": "address"
        },
        {
          "internalType": "uint256",
          "name": "tokenId",
          "type": "uint256"
        }
      ],
      "name": "safeTransferFrom",
      "outputs": [],
      "stateMutability": "nonpayable",
      "type": "function"
    },
    {
      "inputs": [
        {
          "internalType": "address",
          "name": "from",
          "type": "address"
        },
        {
          "internalType": "address",
          "name": "to",
          "type": "address"
        },
        {
          "internalType": "uint256",
          "name": "tokenId",
          "type": "uint256"
        },
        {
          "internalType": "bytes",
          "name": "data",
          "type": "bytes"
        }
      ],
      "name": "safeTransferFrom",
      "outputs": [],
      "stateMutability": "nonpayable",
      "type": "function"
    },
    {
      "inputs": [
        {
          "internalType": "address",
          "name": "operator",
          "type": "address"
        },
        {
          "internalType": "bool",
          "name": "approved",
          "type": "bool"
        }
      ],
      "name": "setApprovalForAll",
      "outputs": [],
      "stateMutability": "nonpayable",
      "type": "function"
    },
    {
      "inputs": [
        {
          "internalType": "string",
          "name": "newBaseURI",
          "type": "string"
        }
      ],
      "name": "setBaseURI",
      "outputs": [],
      "stateMutability": "nonpayable",
      "type": "function"
    },
    {
      "inputs": [
        {
          "internalType": "bytes4",
          "name": "interfaceId",
          "type": "bytes4"
        }
      ],
      "name": "supportsInterface",
      "outputs": [
        {
          "internalType": "bool",
          "name": "",
          "type": "bool"
        }
      ],
      "stateMutability": "view",
      "type": "function"
    },
    {
      "inputs": [],
      "name": "symbol",
      "outputs": [
        {
          "internalType": "string",
          "name": "",
          "type": "string"
        }
      ],
      "stateMutability": "view",
      "type": "function"
    },
    {
      "inputs": [],
      "name": "toggleMinting",
      "outputs": [],
      "stateMutability": "nonpayable",
      "type": "function"
    },
    {
      "inputs": [
        {
          "internalType": "uint256",
          "name": "index",
          "type": "uint256"
        }
      ],
      "name": "tokenByIndex",
      "outputs": [
        {
          "internalType": "uint256",
          "name": "",
          "type": "uint256"
        }
      ],
      "stateMutability": "view",
      "type": "function"
    },
    {
      "inputs": [
        {
          "internalType": "address",
          "name": "owner",
          "type": "address"
        },
        {
          "internalType": "uint256",
          "name": "index",
          "type": "uint256"
        }
      ],
      "name": "tokenOfOwnerByIndex",
      "outputs": [
        {
          "internalType": "uint256",
          "name": "",
          "type": "uint256"
        }
      ],
      "stateMutability": "view",
      "type": "function"
    },
    {
      "inputs": [
        {
          "internalType": "uint256",
          "name": "tokenId",
          "type": "uint256"
        }
      ],
      "name": "tokenURI",
      "outputs": [
        {
          "internalType": "string",
          "name": "",
          "type": "string"
        }
      ],
      "stateMutability": "view",
      "type": "function"
    },
    {
      "inputs": [],
      "name": "totalMinted",
      "outputs": [
        {
          "internalType": "uint256",
          "name": "",
          "type": "uint256"
        }
      ],
      "stateMutability": "view",
      "type": "function"
    },
    {
      "inputs": [],
      "name": "totalSupply",
      "outputs": [
        {
          "internalType": "uint256",
          "name": "",
          "type": "uint256"
        }
      ],
      "stateMutability": "view",
      "type": "function"
    },
    {
      "inputs": [
        {
          "internalType": "address",
          "name": "from",
          "type": "address"
        },
        {
          "internalType": "address",
          "name": "to",
          "type": "address"
        },
        {
          "internalType": "uint256",
          "name": "tokenId",
          "type": "uint256"
        }
      ],
      "name": "transferFrom",
      "outputs": [],
      "stateMutability": "nonpayable",
      "type": "function"
    },
    {
      "inputs": [
        {
          "internalType": "address",
          "name": "newOwner",
          "type": "address"
        }
      ],
      "name": "transferOwnership",
      "outputs": [],
      "stateMutability": "nonpayable",
      "type": "function"
    },
    {
      "inputs": [],
      "name": "usdc",
      "outputs": [
        {
          "internalType": "contract IERC20",
          "name": "",
          "type": "address"
        }
      ],
      "stateMutability": "view",
      "type": "function"
    }
  ],
  "bytecode": "0x60a06040526013805460ff191660011790553480156200001e57600080fd5b5060405162002489380380620024898339810160408190526200004191620002f1565b838989600062000052838262000470565b50600162000061828262000470565b5050506001600160a01b0381166200009457604051631e4fbdf760e01b8152600060048201526024015b60405180910390fd5b6200009f81620000fe565b506001600d556010620000b3888262000470565b50600e869055600f859055601180546001600160a01b0319166001600160a01b03858116919091179091558116608052620000ef848362000150565b5050505050505050506200053c565b600c80546001600160a01b038381166001600160a01b0319831681179093556040519116919082907f8be0079c531659141344cd1fd0a4f28419497f9722a3daafe3b4186f6b6457e090600090a35050565b6127106001600160601b0382168110156200019157604051636f483d0960e01b81526001600160601b0383166004820152602481018290526044016200008b565b6001600160a01b038316620001bd57604051635b6cc80560e11b8152600060048201526024016200008b565b50604080518082019091526001600160a01b039092168083526001600160601b039091166020909201829052600160a01b90910217600a55565b634e487b7160e01b600052604160045260246000fd5b600082601f8301126200021f57600080fd5b81516001600160401b03808211156200023c576200023c620001f7565b604051601f8301601f19908116603f01168101908282118183101715620002675762000267620001f7565b816040528381526020925086838588010111156200028457600080fd5b600091505b83821015620002a8578582018301518183018401529082019062000289565b600093810190920192909252949350505050565b80516001600160a01b0381168114620002d457600080fd5b919050565b80516001600160601b0381168114620002d457600080fd5b60008060008060008060008060006101208a8c0312156200031157600080fd5b89516001600160401b03808211156200032957600080fd5b620003378d838e016200020d565b9a5060208c01519150808211156200034e57600080fd5b6200035c8d838e016200020d565b995060408c01519150808211156200037357600080fd5b50620003828c828d016200020d565b97505060608a0151955060808a01519450620003a160a08b01620002bc565b9350620003b160c08b01620002bc565b9250620003c160e08b01620002d9565b9150620003d26101008b01620002bc565b90509295985092959850929598565b600181811c90821680620003f657607f821691505b6020821081036200041757634e487b7160e01b600052602260045260246000fd5b50919050565b601f8211156200046b57600081815260208120601f850160051c81016020861015620004465750805b601f850160051c820191505b81811015620004675782815560010162000452565b5050505b505050565b81516001600160401b038111156200048c576200048c620001f7565b620004a4816200049d8454620003e1565b846200041d565b602080601f831160018114620004dc5760008415620004c35750858301515b600019600386901b1c1916600185901b17855562000467565b600085815260208120601f198616915b828110156200050d57888601518255948401946001909101908401620004ec565b50858210156200052c5787850151600019600388901b60f8161c191681555b5050505050600190811b01905550565b608051611f1c6200056d600039600081816102e101528181610b1c01528181610b800152610bc80152611f1c6000f3fe608060405234801561001057600080fd5b50600436106101f05760003560e01c80636ff1c9bc1161010f578063a22cb465116100a2578063d5abeb0111610071578063d5abeb0114610418578063e985e9c514610421578063eb13554f14610434578063f2fde38b1461044757600080fd5b8063a22cb465146103d7578063a2309ff8146103ea578063b88d4fde146103f2578063c87b56dd1461040557600080fd5b80638da5cb5b116100de5780638da5cb5b1461039e57806395d89b41146103af5780639fd6db12146103b7578063a0712d68146103c457600080fd5b80636ff1c9bc1461036857806370a082311461037b578063715018a61461038e5780637d55094d1461039657600080fd5b80633e413bee1161018757806355f804b31161015657806355f804b3146103315780636352211e146103445780636817c76c146103575780636c0360eb1461036057600080fd5b80633e413bee146102dc57806342842e0e146103035780634f6ccce714610316578063539aa77f1461032957600080fd5b806318160ddd116101c357806318160ddd1461027257806323b872dd146102845780632a55205a146102975780632f745c59146102c957600080fd5b806301ffc9a7146101f557806306fdde031461021d578063081812fc14610232578063095ea7b31461025d575b600080fd5b6102086102033660046118d3565b61045a565b60405190151581526020015b60405180910390f35b61022561046b565b6040516102149190611947565b61024561024036600461195a565b6104fd565b6040516001600160a01b039091168152602001610214565b61027061026b36600461198f565b610526565b005b6008545b604051908152602001610214565b6102706102923660046119b9565b610535565b6102aa6102a53660046119f5565b6105c5565b604080516001600160a01b039093168352602083019190915201610214565b6102766102d736600461198f565b61064a565b6102457f000000000000000000000000000000000000000000000000000000000000000081565b6102706103113660046119b9565b6106af565b61027661032436600461195a565b6106cf565b61027660fa81565b61027061033f366004611aa3565b610728565b61024561035236600461195a565b610777565b610276600f5481565b610225610782565b610270610376366004611aec565b610810565b610276610389366004611aec565b610944565b61027061098c565b6102706109a0565b600c546001600160a01b0316610245565b6102256109f5565b6013546102089060ff1681565b6102706103d236600461195a565b610a04565b6102706103e5366004611b07565b610c6d565b601254610276565b610270610400366004611b43565b610c78565b61022561041336600461195a565b610c90565b610276600e5481565b61020861042f366004611bbf565b610cce565b601154610245906001600160a01b031681565b610270610455366004611aec565b610cfc565b600061046582610d37565b92915050565b60606000805461047a90611bf2565b80601f01602080910402602001604051908101604052809291908181526020018280546104a690611bf2565b80156104f35780601f106104c8576101008083540402835291602001916104f3565b820191906000526020600020905b8154815290600101906020018083116104d657829003601f168201915b5050505050905090565b600061050882610d5c565b506000828152600460205260409020546001600160a01b0316610465565b610531828233610d95565b5050565b6001600160a01b03821661056457604051633250574960e11b8152600060048201526024015b60405180910390fd5b6000610571838333610da2565b9050836001600160a01b0316816001600160a01b0316146105bf576040516364283d7b60e01b81526001600160a01b038086166004830152602482018490528216604482015260640161055b565b50505050565b6000828152600b6020526040812080548291906001600160a01b03811690600160a01b90046001600160601b031681610619575050600a546001600160a01b03811690600160a01b90046001600160601b03165b60006127106106316001600160601b03841689611c42565b61063b9190611c59565b92989297509195505050505050565b600061065583610944565b82106106865760405163295f44f760e21b81526001600160a01b03841660048201526024810183905260440161055b565b506001600160a01b03919091166000908152600660209081526040808320938352929052205490565b6106ca83838360405180602001604052806000815250610c78565b505050565b60006106da60085490565b82106107035760405163295f44f760e21b8152600060048201526024810183905260440161055b565b6008828154811061071657610716611c7b565b90600052602060002001549050919050565b610730610db7565b601061073c8282611cd7565b507f6741b2fc379fad678116fe3d4d4b9a1a184ab53ba36b86ad0fa66340b1ab41ad8160405161076c9190611947565b60405180910390a150565b600061046582610d5c565b6010805461078f90611bf2565b80601f01602080910402602001604051908101604052809291908181526020018280546107bb90611bf2565b80156108085780601f106107dd57610100808354040283529160200191610808565b820191906000526020600020905b8154815290600101906020018083116107eb57829003601f168201915b505050505081565b610818610db7565b6040516370a0823160e01b81523060048201526000906001600160a01b038316906370a0823190602401602060405180830381865afa15801561085f573d6000803e3d6000fd5b505050506040513d601f19601f820116820180604052508101906108839190611d97565b9050600081116108cc5760405162461bcd60e51b81526020600482015260146024820152734e6f2066756e647320746f20776974686472617760601b604482015260640161055b565b6108f26108e1600c546001600160a01b031690565b6001600160a01b0384169083610de4565b600c546001600160a01b03166001600160a01b03167feaff4b37086828766ad3268786972c0cd24259d4c87a80f9d3963a3c3d999b0d8260405161093891815260200190565b60405180910390a25050565b60006001600160a01b038216610970576040516322718ad960e21b81526000600482015260240161055b565b506001600160a01b031660009081526003602052604090205490565b610994610db7565b61099e6000610e43565b565b6109a8610db7565b6013805460ff8082161560ff1990921682179092556040519116151581527f6bdfe227d5db299c59aa56d5f846f40dbd73b271aaa78e18ed74fc3e00b8aa6b9060200160405180910390a1565b60606001805461047a90611bf2565b610a0c610e95565b60135460ff16610a515760405162461bcd60e51b815260206004820152601060248201526f135a5b9d1a5b99c8191a5cd8589b195960821b604482015260640161055b565b60008111610a985760405162461bcd60e51b815260206004820152601460248201527305175616e74697479206d757374206265203e20360641b604482015260640161055b565b600e541580610ab65750600e5481601254610ab39190611db0565b11155b610af75760405162461bcd60e51b815260206004820152601260248201527145786365656473206d617820737570706c7960701b604482015260640161055b565b600081600f54610b079190611c42565b90508015610bf257610b446001600160a01b037f000000000000000000000000000000000000000000000000000000000000000016333084610ebf565b6000612710610b5460fa84611c42565b610b5e9190611c59565b90506000610b6c8284611dc3565b601154909150610ba9906001600160a01b037f00000000000000000000000000000000000000000000000000000000000000008116911684610de4565b610bef610bbe600c546001600160a01b031690565b6001600160a01b037f0000000000000000000000000000000000000000000000000000000000000000169083610de4565b50505b60005b82811015610c5e5760128054906000610c0d83611dd6565b9190505550610c1e33601254610ef8565b60125460405133907f30385c845b448a36257a6a1716e6ad2e1bc2cbe333cde1e69fe849ad6511adfe90600090a380610c5681611dd6565b915050610bf5565b5050610c6a6001600d55565b50565b610531338383610f12565b610c83848484610535565b6105bf3385858585610fb1565b6060610c9b82610d5c565b506010610ca7836110dc565b604051602001610cb8929190611def565b6040516020818303038152906040529050919050565b6001600160a01b03918216600090815260056020908152604080832093909416825291909152205460ff1690565b610d04610db7565b6001600160a01b038116610d2e57604051631e4fbdf760e01b81526000600482015260240161055b565b610c6a81610e43565b60006001600160e01b0319821663152a902d60e11b148061046557506104658261116f565b6000818152600260205260408120546001600160a01b03168061046557604051637e27328960e01b81526004810184905260240161055b565b6106ca8383836001611194565b6000610daf84848461129a565b949350505050565b600c546001600160a01b0316331461099e5760405163118cdaa760e01b815233600482015260240161055b565b6040516001600160a01b038381166024830152604482018390526106ca91859182169063a9059cbb906064015b604051602081830303815290604052915060e01b6020820180516001600160e01b038381831617835250505050611367565b600c80546001600160a01b038381166001600160a01b0319831681179093556040519116919082907f8be0079c531659141344cd1fd0a4f28419497f9722a3daafe3b4186f6b6457e090600090a35050565b6002600d5403610eb857604051633ee5aeb560e01b815260040160405180910390fd5b6002600d55565b6040516001600160a01b0384811660248301528381166044830152606482018390526105bf9186918216906323b872dd90608401610e11565b6105318282604051806020016040528060008152506113d8565b6001600160a01b038216610f4457604051630b61174360e31b81526001600160a01b038316600482015260240161055b565b6001600160a01b03838116600081815260056020908152604080832094871680845294825291829020805460ff191686151590811790915591519182527f17307eab39ab6107e8899845ad3d59bd9653f200f220920489ca2b5937696c31910160405180910390a3505050565b6001600160a01b0383163b156110d557604051630a85bd0160e11b81526001600160a01b0384169063150b7a0290610ff3908890889087908790600401611e76565b6020604051808303816000875af192505050801561102e575060408051601f3d908101601f1916820190925261102b91810190611eb3565b60015b611097573d80801561105c576040519150601f19603f3d011682016040523d82523d6000602084013e611061565b606091505b50805160000361108f57604051633250574960e11b81526001600160a01b038516600482015260240161055b565b805160208201fd5b6001600160e01b03198116630a85bd0160e11b146110d357604051633250574960e11b81526001600160a01b038516600482015260240161055b565b505b5050505050565b606060006110e9836113f0565b600101905060008167ffffffffffffffff81111561110957611109611a17565b6040519080825280601f01601f191660200182016040528015611133576020820181803683370190505b5090508181016020015b600019016f181899199a1a9b1b9c1cb0b131b232b360811b600a86061a8153600a850494508461113d57509392505050565b60006001600160e01b0319821663780e9d6360e01b14806104655750610465826114c8565b80806111a857506001600160a01b03821615155b1561126a5760006111b884610d5c565b90506001600160a01b038316158015906111e45750826001600160a01b0316816001600160a01b031614155b80156111f757506111f58184610cce565b155b156112205760405163a9fbf51f60e01b81526001600160a01b038416600482015260240161055b565b81156112685783856001600160a01b0316826001600160a01b03167f8c5be1e5ebec7d5bd14f71427d1e84f3dd0314c0f7b2291e5b200ac8c7c3b92560405160405180910390a45b505b5050600090815260046020526040902080546001600160a01b0319166001600160a01b0392909216919091179055565b6000806112a8858585611518565b90506001600160a01b0381166113055761130084600880546000838152600960205260408120829055600182018355919091527ff3f7a9fe364faab93b216da50a3214154f22a0a2b415b23a84c8169e8b636ee30155565b611328565b846001600160a01b0316816001600160a01b031614611328576113288185611611565b6001600160a01b0385166113445761133f84611692565b610daf565b846001600160a01b0316816001600160a01b031614610daf57610daf8585611741565b600080602060008451602086016000885af18061138a576040513d6000823e3d81fd5b50506000513d915081156113a25780600114156113af565b6001600160a01b0384163b155b156105bf57604051635274afe760e01b81526001600160a01b038516600482015260240161055b565b6113e28383611791565b6106ca336000858585610fb1565b60008072184f03e93ff9f4daa797ed6e38ed64bf6a1f0160401b831061142f5772184f03e93ff9f4daa797ed6e38ed64bf6a1f0160401b830492506040015b6d04ee2d6d415b85acef8100000000831061145b576d04ee2d6d415b85acef8100000000830492506020015b662386f26fc10000831061147957662386f26fc10000830492506010015b6305f5e1008310611491576305f5e100830492506008015b61271083106114a557612710830492506004015b606483106114b7576064830492506002015b600a83106104655760010192915050565b60006001600160e01b031982166380ac58cd60e01b14806114f957506001600160e01b03198216635b5e139f60e01b145b8061046557506301ffc9a760e01b6001600160e01b0319831614610465565b6000828152600260205260408120546001600160a01b0390811690831615611545576115458184866117f6565b6001600160a01b0381161561158357611562600085600080611194565b6001600160a01b038116600090815260036020526040902080546000190190555b6001600160a01b038516156115b2576001600160a01b0385166000908152600360205260409020805460010190555b60008481526002602052604080822080546001600160a01b0319166001600160a01b0389811691821790925591518793918516917fddf252ad1be2c89b69c2b068fc378daa952ba7f163c4a11628f55a4df523b3ef91a4949350505050565b600061161c83610944565b6000838152600760209081526040808320546001600160a01b038816845260069092529091209192509081831461167357600083815260208281526040808320548584528184208190558352600790915290208290555b6000938452600760209081526040808620869055938552525081205550565b6008546000906116a490600190611dc3565b600083815260096020526040812054600880549394509092849081106116cc576116cc611c7b565b9060005260206000200154905080600883815481106116ed576116ed611c7b565b600091825260208083209091019290925582815260099091526040808220849055858252812055600880548061172557611725611ed0565b6001900381819060005260206000200160009055905550505050565b6000600161174e84610944565b6117589190611dc3565b6001600160a01b039093166000908152600660209081526040808320868452825280832085905593825260079052919091209190915550565b6001600160a01b0382166117bb57604051633250574960e11b81526000600482015260240161055b565b60006117c983836000610da2565b90506001600160a01b038116156106ca576040516339e3563760e11b81526000600482015260240161055b565b61180183838361185a565b6106ca576001600160a01b03831661182f57604051637e27328960e01b81526004810182905260240161055b565b60405163177e802f60e01b81526001600160a01b03831660048201526024810182905260440161055b565b60006001600160a01b03831615801590610daf5750826001600160a01b0316846001600160a01b0316148061189457506118948484610cce565b80610daf5750506000908152600460205260409020546001600160a01b03908116911614919050565b6001600160e01b031981168114610c6a57600080fd5b6000602082840312156118e557600080fd5b81356118f0816118bd565b9392505050565b60005b838110156119125781810151838201526020016118fa565b50506000910152565b600081518084526119338160208601602086016118f7565b601f01601f19169290920160200192915050565b6020815260006118f0602083018461191b565b60006020828403121561196c57600080fd5b5035919050565b80356001600160a01b038116811461198a57600080fd5b919050565b600080604083850312156119a257600080fd5b6119ab83611973565b946020939093013593505050565b6000806000606084860312156119ce57600080fd5b6119d784611973565b92506119e560208501611973565b9150604084013590509250925092565b60008060408385031215611a0857600080fd5b50508035926020909101359150565b634e487b7160e01b600052604160045260246000fd5b600067ffffffffffffffff80841115611a4857611a48611a17565b604051601f8501601f19908116603f01168101908282118183101715611a7057611a70611a17565b81604052809350858152868686011115611a8957600080fd5b858560208301376000602087830101525050509392505050565b600060208284031215611ab557600080fd5b813567ffffffffffffffff811115611acc57600080fd5b8201601f81018413611add57600080fd5b610daf84823560208401611a2d565b600060208284031215611afe57600080fd5b6118f082611973565b60008060408385031215611b1a57600080fd5b611b2383611973565b915060208301358015158114611b3857600080fd5b809150509250929050565b60008060008060808587031215611b5957600080fd5b611b6285611973565b9350611b7060208601611973565b925060408501359150606085013567ffffffffffffffff811115611b9357600080fd5b8501601f81018713611ba457600080fd5b611bb387823560208401611a2d565b91505092959194509250565b60008060408385031215611bd257600080fd5b611bdb83611973565b9150611be960208401611973565b90509250929050565b600181811c90821680611c0657607f821691505b602082108103611c2657634e487b7160e01b600052602260045260246000fd5b50919050565b634e487b7160e01b600052601160045260246000fd5b808202811582820484141761046557610465611c2c565b600082611c7657634e487b7160e01b600052601260045260246000fd5b500490565b634e487b7160e01b600052603260045260246000fd5b601f8211156106ca57600081815260208120601f850160051c81016020861015611cb85750805b601f850160051c820191505b818110156110d357828155600101611cc4565b815167ffffffffffffffff811115611cf157611cf1611a17565b611d0581611cff8454611bf2565b84611c91565b602080601f831160018114611d3a5760008415611d225750858301515b600019600386901b1c1916600185901b1785556110d3565b600085815260208120601f198616915b82811015611d6957888601518255948401946001909101908401611d4a565b5085821015611d875787850151600019600388901b60f8161c191681555b5050505050600190811b01905550565b600060208284031215611da957600080fd5b5051919050565b8082018082111561046557610465611c2c565b8181038181111561046557610465611c2c565b600060018201611de857611de8611c2c565b5060010190565b6000808454611dfd81611bf2565b60018281168015611e155760018114611e2a57611e59565b60ff1984168752821515830287019450611e59565b8860005260208060002060005b85811015611e505781548a820152908401908201611e37565b50505082870194505b505050508351611e6d8183602088016118f7565b01949350505050565b6001600160a01b0385811682528416602082015260408101839052608060608201819052600090611ea99083018461191b565b9695505050505050565b600060208284031215611ec557600080fd5b81516118f0816118bd565b634e487b7160e01b600052603160045260246000fdfea2646970667358221220ed79081d0378828a8127d0e3f4fed3e5d45372ba16b94ab1adb36682981a71c164736f6c63430008140033",
  "linkReferences": {},
  "deployedLinkReferences": {}
}